:020000040800F2
:1000000000000120ED050008A9050008AB05000867
:10001000AD050008AF050008B105000800000000AC
:10002000000000000000000000000000B305000810
:10003000B505000800000000B7050008B905000874
:100040003D0600083D0600083D0600083D06000884
:100050003D0600083D0600083D0600083D06000874
:100060003D0600083D0600083D0600083D06000864
:100070003D0600083D0600083D0600083D06000854
:100080003D0600083D0600083D0600083D06000844
:100090003D0600083D0600083D060008BD050008B5
:1000A0003D0600083D0600083D0600083D06000824
:1000B0003D0600083D0600083D0600083D06000814
:1000C0003D0600083D0600083D0600083D06000804
:1000D0003D0600083D060008C50500083D0600086D
:1000E000D10500083D0600083D0600083D06000851
:1000F0003D0600083D0600083D0600083D060008D4
:100100003D06000800000000000000003D06000859
:100110003D0600083D0600083D0600083D060008B3
:100120003D0600083D0600083D0600083D060008A3
:100130003D0600083D060008000000000000000029
:100140003D0600083D0600083D06000800000000CE
:10015000000000000000000000000000000000009F
:100160003D0600083D0600083D0600083D06000863
:100170003D0600083D0600083D0600083D06000853
:100180003D0600083D0600080000000000000000D9
:040190003D06000820
:1001940010B5054C237833B9044B13B10448AFF3BD
:1001A40000800123237010BD0C000020000000001B
:1001B4009426000808B5034B1BB103490348AFF369
:1001C400008008BD000000001000002094260008F4
:1001D40070B54FF400714FF0904000F003FC0446FA
:1001E400E8B9134D2B78D3B1124B1B78BBB1124E27
:1001F400124801230222314601F063FC104A1149DE
:100204001368308821F813000133B3F5964F136057
:1002140004D30D4B2C70146001221A7070BD0B486E
:100224004FF4005100F0DEFB0028F7D1084BF3E750
:100234009D9700209C9700209E970020B496002054
:10024400AC000020B0000020B09600200008004858
:10025400A8000020074B1A783AB9074A127822B945
:10026400064A12680AB901221A7005490548012292
:1002740002F0BEB99D970020B0960020AC0000208B
:10028400280000201897002030B52022A7B00021B4
:100294000DEB020002F0F4F91422002101A802F08F
:1002A400EFF95822002110A802F0EAF901234FF4D3
:1002B400A022CDE90632099302244FF480354FF48D
:1002C400E01306A8CDE90C450E9300F09DFB08B1A0
:1002D40072B6FEE70F23CDE901344FF48063CDE914
:1002E40004300390214601A800F050FE08B172B614
:1002F400FEE710A81094139500F024FF08B172B61D
:10030400FEE727B030BD000080B5002488B000F0BF
:10031400B9F9FFF7B9FFCDE90544544B07945A697D
:10032400534842F400225A615A6902F400220092AE
:10033400009A5A6942F480025A615A6902F48002AE
:100344000192019A5A6942F400325A615B6903F4DA
:10035400003302934FF44415029B03A94FF4005356
:10036400CDE903354FF4007600F06AFA03A94FF0A3
:100374009040CDE90365059400F062FA22462146D7
:10038400172000F0C9F9172000F0F8F92246214699
:10039400282000F0C1F9282000F0F0F9354D364846
:1003A4002C614FF46133C5E900030C23C5E905341E
:1003B40028464FF40043C5E90734C5E902446C629A
:1003C40002F091F8034608B172B6FEE72B482C49B7
:1003D40083604FF48272C0E900124FF4E062C0E916
:1003E40003231822C0E907230722C0E90536C0E920
:1003F4000933C0E90B23436301F000F908B172B675
:10040400FEE78022AA211F481F4C204F02F038F932
:100414000126FA20267000F059F932461949194E7E
:10042400284602F0E5F8DFF85480237873B14FF4DE
:100434007A7380223146404601F04EF940F2EE20B4
:1004440000F044F90023237001233B70104D2B78F6
:10045400002BEAD040F6B8330E4906484FF4164252
:1004640001F0B4FF00232B70DDE700BF0010024051
:10047400000800481897002000440040B49600206B
:100484000030014028000020A80000209C97002094
:10049400B0960020B00000200B4B9A6942F0010294
:1004A4009A619A6982B002F001020092009ADA69B4
:1004B40042F08052DA61DB6903F080530193019BBF
:1004C400072002B000F016B90010024010B504462F
:1004D40088B01422002103A802F0D2F82268134B3A
:1004E4009A4220D103F5604303219A6942F4805271
:1004F4009A619A6902F480520192019A5A6942F40B
:1005040000325A615B6903F400330293029BE022D8
:100514000223CDE903230523CDE906134FF09040D0
:1005240003A900F08DF908B010BD00BF00300140F0
:1005340010B5044688B01422002103A802F0A0F8E4
:100544002268174B9A4228D103F5E6330321DA696E
:1005540042F40032DA61DA6902F400320192019A5B
:100564005A6942F400325A615B6903F4003302931E
:100574000C22029B0223CDE903230723CDE90613B2
:100584004FF0904003A900F05BF9002226201146A9
:1005940000F0C2F8262000F0F1F808B010BD00BF4A
:1005A40000440040FEE7FEE7FEE7FEE7FEE7704793
:1005B4007047704700F078B84FF4007000F018BA34
:1005C400014801F06BBB00BF189700204FF40050A6
:1005D40000F00EBA034AD2F8883043F47003C2F82C
:1005E4008830704700ED00E0DFF834D00D480E4944
:1005F4000E4A002302E0D458C4500433C4188C4279
:10060400F9D30B4A0B4C002301E013600432A242DD
:10061400FBD3FFF7DFFF02F00FF8FFF775FEFEE7ED
:1006240000000120000000200C000020F02600083B
:100634000C000020A4970020FEE7000038B50E4A05
:100644000E4B054618784FF47A73B3FBF0F3106839
:10065400B0FBF3F000F0A0F8044658B90F2D09D808
:10066400024629464FF0FF3000F056F8044B20466E
:100674001D6038BD0120FCE70000002004000020BC
:1006840008000020074A08B5136843F010031360FC
:10069400032000F02FF80020FFF7D0FFFFF7FCFE47
:1006A400002008BD00200240034A044B11681B7857
:1006B4000B441360704700BFA09700200400002083
:1006C400014B1868704700BFA097002038B5044656
:1006D400FFF7F6FF631C1CBF054B1B78054618BFCC
:1006E400E418FFF7EDFF431BA342FAD338BD00BF64
:1006F400040000200749CA6822F4E06203021204DD
:1007040003F4E063120C134343F0BF6343F4003378
:10071400CB60704700ED00E0164B30B5DC68C4F3E5
:100724000224C4F10705231D042D28BF0425062B2C
:100734004FF0FF338CBF033C002403FA05F521EA94
:100744000501A34022EA0302A140002841EA020372
:10075400ACBF00F16040084A4FEA0313B8BF00F091
:100764000F00DBB2AABF00F56140135480F80033D8
:1007740030BD00BF00ED00E014ED00E0002808DB10
:100784004209012300F01F0003FA00F0014B43F873
:100794002200704700E100E00138B0F1807F0BD205
:1007A4004FF0E023054A5861F02182F8231000201D
:1007B400072298611A6170470120704700ED00E03C
:1007C40090F82130022B06D004238363002380F8A1
:1007D40020300120704703681A6822F00E021A6064
:1007E4001A6822F001021A60D0E90F2101238B401C
:1007F40053604FF4807303840020704710B590F861
:100804002120022A03D004228263012010BD026841
:10081400436B116821F00E011160116821F0010190
:100824001160D0E90F140122A2404A604FF4807293
:10083400028413B198470020E8E71846E6E7000071
:100844002DE9F74FDFF89891634C00230A6832FAD8
:1008540003F502D103B0BDE8F08F4FF0010E0EFA9C
:1008640003FE1EEA020200F0A9804E6806F00305AA
:100874004FEA43084FF0030C6F1E0CFA08FC012FDB
:100884006FEA0C0C34D8876807EA0C0ACF6807FAB9
:1008940008F747EA0A078760476827EA0E0EC6F397
:1008A40000179F4047EA0E074760C76807EA0C0E27
:1008B4008F6807FA08F747EA0E07022DC76019D1B7
:1008C4004FEAD30A00EB8A0A03F0070BDAF8207028
:1008D4004FEA8B0B4FF00F0E0EFA0BFE27EA0E0EAB
:1008E4000F6907FA0BF747EA0E07CAF8207001E010
:1008F400032DDAD1076805FA08F507EA0C072F4338
:1009040016F4403F076059D0D9F8185045F0010556
:10091400C9F81850D9F8185023F0030707F1804795
:1009240005F0010507F58037019503F0030E019DDD
:10093400BD684FEA8E0E4FF00F0C0CFA0EFCB0F1AE
:10094400904F25EA0C0C3BD0244DA8423AD005F533
:100954008065A84238D005F58065A84236D005F5F3
:100964008065A84234D005F58065A84232D005F5EB
:100974008065A8420CBF0625072505FA0EF545EA51
:100984000C05BD602568D74316F4803F0CBF3D407D
:1009940015432560656816F4003F0CBF3D401543C0
:1009A4006560A56816F4801F0CBF3D401543A56023
:1009B400E568B60254BF3D401543E560013345E7A1
:1009C4000025DAE70125D8E70225D6E70325D4E791
:1009D4000425D2E70525D0E70004014000040048BF
:1009E400001002400369194214BF0120002070471F
:1009F400044A5169014208B502D05061FFF7E8FB8F
:100A040008BD00BF000401402DE9F7430546002856
:100A140038D00368DF0711D42B689E0700F18B8060
:100A24002B681C0700F1FE802B68580700F14C81ED
:100A3400A869002840F0DA81002047E0A04C6368F0
:100A440003F00C03042B0AD0636803F00C03082B97
:100A54001AD1636803F4C033B3F5803F14D14FF463
:100A6400003393FAA3F2216893FAA3F3B3FA83F35E
:100A740003F01F03012202FA03F30B42CCD06B688C
:100A8400002BC9D1012021E06B68B3F5803F20D150
:100A9400236843F480332360FFF712FE4FF40037DA
:100AA40006464FF0010897FAA7F3226897FAA7F3CE
:100AB400B3FA83F303F01F0308FA03F31342ABD131
:100AC400FFF7FEFD831B642BEDD9032003B0BDE8C3
:100AD400F0830BBB236823F480332360236823F45F
:100AE40080232360FFF7ECFD4FF4003706464FF0F8
:100AF400010897FAA7F3226897FAA7F3B3FA83F3E6
:100B040003F01F0308FA03F3134285D0FFF7D8FD5F
:100B1400831B642BEDD9D8E7B3F5A02F236803D149
:100B240043F480232360B3E723F4803323602368F2
:100B340023F48023AFE7624C636813F00C0F0AD0F0
:100B4400636803F00C03082B24D1636803F4C033F7
:100B5400B3F5004F1ED1022393FAA3F2216893FA4E
:100B6400A3F3B3FA83F303F01F03012202FA03F39E
:100B74000B4202D0EB68934284D12168F82393FAA4
:100B8400A3F3B3FA83F22B69934021F0F8021343E1
:100B9400236045E7EA6801260AB396FAA6F3B3FA96
:100BA40083F303F1845303F584139B004FF002088D
:100BB4001E60FFF785FD074698FAA8F3226898FAA5
:100BC400A8F3B3FA83F303F01F0306FA03F3134203
:100BD400D3D1FFF775FDC31B022BEDD975E796FA48
:100BE400A6F3B3FA83F303F1845303F584139B0050
:100BF4004FF002081A60FFF763FD074698FAA8F35E
:100C0400226898FAA8F3B3FA83F303F01F0306FAF1
:100C140003F313423FF404AFFFF752FDC31B022B4F
:100C2400ECD952E76A69264E264901241AB394FA8C
:100C3400A4F3B3FA83F30B449B0002271C60FFF771
:100C44003FFD804697FAA7F397FAA7F397FAA7F31D
:100C5400726A97FAA7F3B3FA83F303F01F0304FA53
:100C640003F313427FF4E0AEFFF72AFDA0EB080381
:100C7400022BE7D929E794FAA4F3B3FA83F30B44DC
:100C84009B0002271A60FFF71BFD804697FAA7F323
:100C940097FAA7F397FAA7F3726A97FAA7F3B3FA46
:100CA40083F303F01F0304FA03F313423FF4BCAECF
:100CB400FFF706FDA0EB0803022BE7D905E700BF09
:100CC4000010024020819010984CE369D90033D47D
:100CD400E36943F08053E361E36903F080530193D4
:100CE400019B0126924F3B68DA0527D5AB68012B9F
:100CF40035D1236A43F001032362FFF7E1FC0227A5
:100D040080464FF0010997FAA7F397FAA7F3002B4F
:100D140064D0226A97FAA7F3B3FA83F303F01F03AC
:100D240009FA03F3134250D0002E3FF481AEE36975
:100D340023F08053E3617BE60026D3E73B6843F46A
:100D440080733B60FFF7BCFC80463B68DB05CDD479
:100D5400FFF7B6FCA0EB08006428F6D9B5E633BB70
:100D6400236A23F001032362236A23F0040323622A
:100D7400FFF7A6FC022780464FF0010997FAA7F374
:100D840097FAA7F373B3226A97FAA7F3B3FA83F334
:100D940003F01F0309FA03F31342C5D0FFF790FCD5
:100DA40041F28833A0EB08009842E7D98DE6052B81
:100DB400236A03D143F0040323629AE723F0010377
:100DC4002362236A23F0040396E7FFF779FC41F2D8
:100DD4008833A0EB0800984295D976E697FAA7F3F2
:100DE400626A97E797FAA7F3626ACDE74F4C6368A4
:100DF40003F00C03082B00F0818002284FF080736D
:100E040057D193FAA3F3B3FA83F303F1845303F5AD
:100E140084139B0000221A60FFF752FC4FF0007805
:100E24000746012698FAA8F3226898FAA8F3B3FAB9
:100E340083F303F01F0306FA03F3134233D1E36A87
:100E44006A6A23F00F031343E362D5E90713626868
:100E54000B4322F47612134363604FF0807393FACA
:100E6400A3F3B3FA83F303F1845303F584139B00D0
:100E740001271E60FFF724FC4FF00076054696FA22
:100E8400A6F3226896FAA6F3B3FA83F303F01F03DA
:100E940007FA03F313427FF4CFADFFF711FC401BB5
:100EA4000228ECD911E6FFF70BFCC31B022BB9D9BE
:100EB4000BE693FAA3F3B3FA83F303F1845303F534
:100EC40084139B0000221A60FFF7FAFB4FF00076B0
:100ED4000546012796FAA6F3226896FAA6F3B3FA12
:100EE40083F303F01F0307FA03F313423FF4A4ADA3
:100EF400FFF7E6FB401B0228ECD9E6E501283FF4A6
:100F0400E5AD6368E969E26A03F4C03088427FF4BE
:100F1400B9AD296A03F470138B427FF4B3AD02F0C8
:100F24000F036A6A93423FF487ADABE500100240B9
:100F34000070004011494B6803F00C02082A1AD1D2
:100F44004FF4701292FAA2F20F20B2FA82F2C96A36
:100F540090FAA0F003F47013D340094AB0FA80F079
:100F640001F00F01D35CC1400648415C0648B0FB68
:100F7400F1F0584370470448704700BF0010024026
:100F8400C4260008D426000800127A002DE9F04196
:100F94000D46044610B90120BDE8F0814C4A13689F
:100FA40003F007038B422ED32268910736D4D2076D
:100FB4003CD4474A136803F00703AB4274D8226851
:100FC400444D12F0040F7BD1130706D56B682269D8
:100FD40023F4605343EAC2036B60FFF7ABFF6B6813
:100FE400F02292FAA2F2B2FA82F203F0F003D340B2
:100FF400394AD35CD840394B1860394B1868FFF72D
:101004001DFB0020C8E7136823F007030B4313609C
:10101400136803F007038B42BDD1C5E72D49A068CF
:101024004B6823F0F00303434B60C0E76268294E2A
:10103400012A26D14FF4003393FAA3F1316893FACD
:10104400A3F3B3FA83F303F01F0302FA03F30B428F
:10105400A1D0736823F003031A437260FFF730FBD7
:1010640041F2883807467368626803F00C03B3EBF7
:10107400820F9ED0FFF724FBC01B4045F3D9032009
:101084008AE7022A0CBF4FF00073022393FAA3F1FC
:10109400306893FAA3F3B3FA83F303F01F03012137
:1010A40001FA03F30342D3E7136823F007032B4346
:1010B4001360136803F00703AB427FF46CAF7EE761
:1010C4006B68E16823F4E0630B436B607CE700BF6B
:1010D4000020024000100240AC260008000000205E
:1010E40008000020084B4FF4E0625B6892FAA2F219
:1010F400B2FA82F203F4E063D340044AD35C044AB4
:101104001068D840704700BF00100240BC26000899
:1011140000000020084B4FF460525B6892FAA2F280
:10112400B2FA82F203F46053D340044AD35C044A13
:101134001068D840704700BF00100240BC26000869
:101144000000002003682DE9F743D903044623D5A2
:101154009A4DEB69DA0000F1D980EB6943F08053D2
:10116400EB61EB6903F080530193019B0126944FDB
:101174003B68DB0540F1CC802B6A13F4407340F0EC
:10118400DC802B6A626823F4407313432B621EB124
:10119400EB6923F08053EB612368DA0706D58749AE
:1011A400A0680A6B22F0030202430A639F0706D574
:1011B4008249E0680A6B22F4403202430A635E0704
:1011C40006D57E4920690A6B22F4402202430A6351
:1011D4009D0606D57949E0690A6B22F010020243A4
:1011E4000A63980306D57549606D4A6822F4800243
:1011F40002434A60590606D57049206A0A6B22F0F8
:10120400200202430A635A0306D56C49606A0A6BDA
:1012140022F0400202430A631F0706D5674960694A
:101224000A6B22F4401202430A63DE0606D56349C0
:10123400A0690A6B22F4400202430A639D0506D5A5
:101244005E49206B4A6822F4000202434A60180691
:1012540006D55A49A06ACA6A22F4F8720243CA62DD
:10126400D90506D55549E06ACA6A22F47852024380
:10127400CA62DA0406D55149606B0A6B22F48072A3
:1012840002430A639F0406D54C49206C0A6B22F47E
:10129400007202430A63DE0206D54849A06B0A6B5A
:1012A40022F0807202430A639D0206D54349E06B33
:1012B4000A6B22F0007202430A63580206D53F49C2
:1012C400606C0A6B22F4806202430A63190206D539
:1012D4003A49A06C0A6B22F4006202430A63DA0101
:1012E40006D53649E06C0A6B22F4005202430A63C5
:1012F40013F000731FBF314A216D136B23F40043B5
:101304001DBF0B4313630020184613E000262EE78D
:101314003B6843F480733B60FFF7D2F980463B6837
:10132400D8053FF529AFFFF7CBF9A0EB08006428F7
:10133400F5D9032003B0BDE8F083626802F440727B
:101344009A423FF41EAF296A4FF4803321F440706F
:1013540093FAA3F2DFF86CC0B2FA82F2624492000C
:101364000127176093FAA3F3B3FA83F363449B0052
:101374000022C9071A6028627FF503AFFFF7A0F9BE
:101384004FF00208814698FAA8F398FAA8F3DBB163
:101394002A6A98FAA8F3B3FA83F303F01F0307FA4F
:1013A40003F313427FF4EDAEFFF78AF941F2883379
:1013B400A0EB09009842E6D9BBE700BF0010024049
:1013C400007000400081901098FAA8F36A6AE0E780
:1013D4002DE9F7439846002317468DF80330054658
:1013E4000E46FFF76DF9B844A8EB0004FFF768F95F
:1013F400294BD5F800901B68232253431B0D8046CC
:1014040063432A6801939368334001D1184638E056
:10141400B6F5C06F01BF99F80C30DBB28DF803301C
:101424009DF803307B1CEED0FFF74AF9A0EB0800CF
:10143400A04229D32B685A6822F0E0025A606A68F5
:10144400B2F5827F0AD1AA68B2F5004F02D0B2F594
:10145400806F03D11A6822F040021A60AA6AB2F5BA
:10146400005F07D11A6822F400521A601A6842F425
:1014740000521A60012385F85D30002385F85C3042
:10148400032003B0BDE8F083019B002B019B08BF40
:101494000024013BB5E700BF00000020F7B50E466D
:1014A40017460546FFF70CF937443C1AFFF708F9CD
:1014B400224B1B68C3F3CB33074663432A6801936B
:1014C400936813F0800301D118462DE0731CF7D004
:1014D400FFF7F6F8C01BA04228D32B685A6822F005
:1014E400E0025A606A68B2F5827F0AD1AA68B2F54E
:1014F400004F02D0B2F5806F03D11A6822F0400287
:101504001A60AA6AB2F5005F07D11A6822F4005281
:101514001A601A6842F400521A60012385F85D309B
:10152400002385F85C30032003B0F0BD019B002B41
:10153400019B08BF0024013BC0E700BF000000205E
:1015440013464268B2F5827F73B504460E460BD14A
:101554008268B2F5004F02D0B2F5806F04D12068E2
:10156400026822F0400202601A4631462046019386
:10157400FFF794FF019B054628B1236E43F0200337
:101584002366032512E06268B2F5827F0ED1A26859
:10159400B2F5004F02D0B2F5806F07D132464FF456
:1015A400C0612046FFF714FF0028E6D1284602B0A8
:1015B40070BD37B5134601920D460A464FF4C0512B
:1015C4000446FFF705FF019B28B1236E43F0200377
:1015D4002366032010E01A46294620460193FFF7AC
:1015E4005DFF019B0028F0D12A464FF4C0612046DC
:1015F400FFF7EEFE0028E8D103B030BD70B5044615
:10160400002863D0436A002B5CD14268B2F5827F24
:1016140000D0C3610023A36294F85D3003F0FF029D
:1016240023B984F85C202046FEF750FF2268E06866
:10163400022384F85D301368B0F5E06F23F04003B3
:1016440013604FF0000343D84FF4805500D0A362D9
:101654006368A668A16906F4044603F482733343FD
:10166400266906F002063343666906F00106334331
:1016740001F400763343E66906F038063343266AFC
:1016840006F080063343A66A06F40056334313601B
:10169400666B636A06F0080603F01003334300F434
:1016A4007060090C184301F0040101430D435560B7
:1016B400D36923F40063D36100200123206684F8F6
:1016C4005D3070BD0023C0E90433A3E70120F8E7CF
:1016D4001D46B0F5706FB9E72DE9F7431F4690F842
:1016E4005C30012B04460D46904600F0BC8001237B
:1016F40080F85C30FEF7E4FF94F85D30012B8146FE
:10170400D8B240F0AE80002D63D0B8F1000F60D0A5
:10171400032384F85D3000232366C4E91333A4F85B
:101724003E802364A4F84430A4F84630A3682668B5
:10173400A563B3F5004FA4F83C8007D1336823F0C8
:1017440040033360336843F4804333603368E268B2
:101754005B065EBF336843F040033360B2F5E06F6D
:10176400636842D913B1B8F1010F07D135F8023BD0
:10177400F360A563E38F013B9BB2E387E38F9BB2E6
:10178400A3B94A4639462046FFF713FF002865D11E
:10179400A36833B901932368DA6801929B680193C3
:1017A400019B206E003818BF012012E02268936864
:1017B4009D0705D5A36B33F8021BD160A363D9E75A
:1017C400FEF77EFFA0EB0900B8420BD3781CD5D0FE
:1017D4000320012384F85D30002384F85C3003B0D7
:1017E400BDE8F083002FC9D1F2E713B1B8F1010FBE
:1017F40013D1E38F9BB2012B06D935F8023BF3607A
:10180400A563E38F023B06E02B783373A36B0133AC
:10181400A363E38F013B9BB2E387E38F9BB2002B6F
:10182400AFD02268936899070CD5E18FA36B89B276
:10183400012904D933F8021BD160A363E1E71B78C3
:101844001373E3E7FEF73CFFA0EB0900B84202D3B1
:101854007B1CE2D0BCE7002FDFD1B9E7202323664D
:1018640096E70220B5E70220B9E72DE9F8431F46C1
:1018740090F85C30DDF82080012B04460D461646B6
:1018840000F01D81012380F85C30FEF719FF94F805
:101894005D206368012A8146D1B20AD0B3F5827F04
:1018A40040F00B81A268002A40F00781042940F02F
:1018B4000481002D47D0002E45D0002F43D094F84A
:1018C4005D20E1682664042A1CBF052284F85D209B
:1018D4002668A4F8447000222266B1F5E06FA4F8EB
:1018E4004670E787C4E91322A5637268A78701D805
:1018F400012F2AD022F480527260326850065EBFF3
:10190400326842F040023260B1F5E06F58D90BB151
:10191400012F07D135F8023BF360E38FA563013B48
:101924009BB2E3870125E38F9BB28BB9B4F84630B1
:101934009BB26BB94A4641462046FFF73AFE00285F
:1019440036D020232366012032E042F48052D3E7CC
:1019540021688B689A070DD5E38F9BB253B14DB1C3
:10196400A36B33F8022BCA60A363E38F013B9BB2E2
:10197400E38700258A6812F001020FD0B4F84630DC
:101984009BB25BB1236CC96823F8021B2364B4F8CF
:101994004630013B9BB2A4F846301546FEF790FE54
:1019A400A0EB09004045BED3B8F1FF3FBBD00320F4
:1019B400012384F85D30002384F85C30BDE8F883AB
:1019C4000BB1012F0BD1E38F9BB2012B09D935F851
:1019D400023BF360E38FA563023B9BB2E3870125DF
:1019E40049E02B783373A36B0133A363E38F013B8B
:1019F400F3E7226893689B0711D5E38F9BB273B119
:101A04006DB1E18FA36B89B201293ED933F8021B72
:101A1400D160A363E38F023B9BB2E3870025226876
:101A2400936813F001031DD0B4F8461089B2C9B10C
:101A3400B4F84600216C80B201282ED9D06821F870
:101A4400020B2164B4F84610023989B2A4F8461096
:101A5400B4F8461089B2012903D8516841F4805181
:101A640051601D46FEF72CFEA0EB0900404520D333
:101A7400B8F1FF3F9BD1E38F9BB2002BB9D1B4F8EF
:101A840046309BB2002BB4D154E71B781373A36B7D
:101A94000133A363E38F013BBEE7127B0A70226C20
:101AA40001322264B4F84620013A92B2A4F84620E6
:101AB400D7E7B8F1000FDED179E7022078E70220FA
:101AC4007CE72DE9F7431E464368B3F5827F04465D
:101AD400894617460CD1836853B9042380F85D30D6
:101AE400134600960A46FFF7C0FE03B0BDE8F08334
:101AF40094F85C30012B00F09A80012384F85C3068
:101B0400FEF7DEFD94F85D30012B8046D8B240F03C
:101B14008C80B9F1000F6FD0002F6DD00025042305
:101B240084F85D30C4E913552566A563A4F84670AE
:101B3400A587E5872568E2686B68C4F84090B2F52C
:101B4400E06F8CBF23F4805343F48053A4F84470B3
:101B54006B60A368B3F5004F07D12B6823F04003F3
:101B64002B602B6823F480432B602B685F065EBFD9
:101B74002B6843F040032B60B2F5E06F23D9B4F82F
:101B840046309BB223B323689A68D2073ED5DA68FD
:101B9400236C23F8022B2364B4F84630013B9BB238
:101BA400A4F84630EBE723689A68D0071BD5226C6B
:101BB4001B7B1370236C01332364B4F84630013B60
:101BC4009BB2A4F84630B4F846309BB2002BEAD15D
:101BD400424631462046FFF7B3FC18BB206E00385E
:101BE40018BF012008E0FEF76BFDA0EB0800B0422F
:101BF40009D3711CE7D00320012384F85D3000234E
:101C040084F85C3071E7002EDDD1F4E7FEF758FD6F
:101C1400A0EB0800B04202D3731CB0D0EBE7002E57
:101C2400ADD1E8E720232366D8E70220E4E70220C9
:101C34005BE7026852E8003F23F4907342E8003106
:101C440002680029F5D102F1080353E8003F23F0AC
:101C5400010302F1080C4CE800310029F3D1036EB2
:101C6400012B07D152E8003F23F0100342E8003172
:101C74000029F7D12023C367002303664366704716
:101C84007047704708B5406A0023A0F85A30A0F89E
:101C94005230FFF7F6FF08BD704700000368DA69A9
:101CA400196870B540F60F0632429D6804460BD1A0
:101CB400960640F188808E0640F18580436E002BA5
:101CC4007BD0BDE870401847954E05F001000E40EA
:101CD400064378D0D50709D5CE0507D501251D6261
:101CE400D4F8805045F00105C4F88050950708D514
:101CF40038B102251D62D4F8805045F00405C4F8BB
:101D04008050560708D538B104251D62D4F8805098
:101D140045F00205C4F8805015070BD501F02005E5
:101D2400284307D008201862D4F8800040F0080047
:101D3400C4F8800016050AD54D0108D54FF400609B
:101D44001862D4F8803043F02003C4F88030D4F80B
:101D54008030002B31D0900605D58A0603D5636EFA
:101D64000BB1204698472368D4F880509B6805F04F
:101D7400280503F040031D4320461FD0FFF759FFF9
:101D8400226893685B0615D502F1080353E8003F07
:101D940023F0400302F1080040E800310029F3D1A8
:101DA400206F38B15F4B4363FEF728FD28B1206FE5
:101DB400436B86E72046FFF764FF70BDFFF761FFC2
:101DC400C4F88050F9E7206E01287ED1D6067CD570
:101DD400C8067AD510221A629A68520646D5216F2F
:101DE4000A68526892B2002AE7D0B4F858009042C8
:101DF400E3D9A4F85A208A69202A2DD053E8002F69
:101E040022F4807243E800210029F7D103F108028B
:101E140052E8002F22F0010203F1080040E80021FB
:101E24000029F3D103F1080252E8002F22F0400206
:101E340003F1080040E800210029F3D12022E267E1
:101E4400216653E8002F22F0100243E80021002904
:101E5400F7D1206FFEF7B4FCB4F85A30B4F8581038
:101E6400C91A89B22046FFF717FFA6E7B4F85A103B
:101E74008AB2B4F85A1089B200299ED0B4F8581026
:101E8400891A89B2002998D053E8002F22F490725D
:101E940043E800200028F7D103F1080252E8002F9C
:101EA40022F0010203F1080545E800200028F3D1DF
:101EB4002022E2676066206653E8002F22F01002B9
:101EC40043E800200028F7D1CCE7D60209D5680200
:101ED40007D54FF4801220461A62BDE8704000F026
:101EE400AABB160607D50D0605D5A36E002B3FF435
:101EF40064AF2046E5E650067FF55FAF4A067FF5FE
:101F04005CAF53E8002F22F0400243E8002100298F
:101F1400F7D12023A367A1662046FFF7B1FE4CE763
:101F240020010004891C0008C26F222A08B5036836
:101F340044D19B8CB0F85C10426D0B401370436D20
:101F440001334365B0F85A30013B9BB2A0F85A30D4
:101F5400B0F85A309BB26BBB026852E8003F23F4DE
:101F6400907342E8003103680029F5D103F10802B7
:101F740052E8002F22F0010203F1080C4CE8002182
:101F84000029F3D12022C267026E4166012A12D1D0
:101F9400016653E8002F22F0100243E800210029D3
:101FA400F7D1DA69B0F85810D20644BF10221A6289
:101FB400FFF772FE08BDFEF74DF9FBE79A6942F0A0
:101FC40008029A61F6E7C26F222A08B5036841D174
:101FD400998CB0F85C201140426D22F8021B4265D6
:101FE400B0F85A20013A92B2A0F85A20B0F85A2018
:101FF40092B25ABB53E8002F22F4907243E80021B6
:102004000029F7D103F1080252E8002F22F001025F
:1020140003F1080C4CE800210029F3D12022C26707
:10202400026E4166012A12D1016653E8002F22F0A4
:10203400100243E800210029F7D1DA69B0F85810FA
:10204400D20644BF10221A62FFF726FE08BDFEF72F
:1020540001F9FBE79A6942F008029A61F6E7000089
:1020640038B50446C0692169A26823680A436169D6
:102074001D680A437349024329400A431A605A6897
:10208400E168256A22F440520A435A609968A269B9
:1020940021F430612A430A439A606B4A934215D172
:1020A4006A4B1B6B03F00303013B022B00F2A0807D
:1020B400674AB0F5004FD35C7DD1082B19D8DFE80F
:1020C40003F05B9A6318A61818186400614A9342D7
:1020D40019D15E4B1B6B03F44033B3F5003F00F0A2
:1020E4008D8008D8002B00F09580B3F5803F00F078
:1020F4008B80012044E0B3F5403FFAD1B0F5004FA6
:1021040042D055488DE0554A93420FD14F4B1B6B3B
:1021140003F44023B3F5002F70D004D8002B79D0FA
:10212400B3F5802FE3E7B3F5402FE6E74C4A93423B
:102134000FD1464B1B6B03F44013B3F5001F5DD066
:1021440004D8002B66D0B3F5801FD0E7B3F5401F49
:10215400D3E7444A9342CCD13C4B1B6B03F440037A
:10216400B3F5000F4AD004D8002B53D0B3F5800F39
:10217400BDE7B3F5400FC0E7FEF7B4FF28B9002070
:102184000023C4E9193338BD33486268530803EBAC
:102194004000B0FBF2F083B2A3F110014FF6EF72EE
:1021A4009142A6D820F00F00226880B2C3F3420304
:1021B4001843D060E3E7082B9BD801A252F823F020
:1021C4001F220008E921000807210008F720000861
:1021D400EF210008F7200008F7200008F720000886
:1021E40007220008FEF796FF19E0FEF7A3FE16E0AB
:1021F400B0F5004FF6D1FEF78DFFBFE7B0F5004F05
:10220400C3D04FF400400CE0B0F5004FEDD1FEF721
:1022140091FEB3E7B0F5004FAED0FEF763FF0028A0
:10222400ADD0626800EB5203B3FBF2F39BB2A3F1AF
:1022340010014FF6EF7291423FF65BAF2268D36014
:102244009DE700BFF369FFEF003801400010024032
:10225400E42600080044004000127A0000480040D0
:10226400004C004000500040436ADA0710B506D520
:102274000168846A4A6822F4003222434A609C0757
:1022840006D50168C46A4A6822F4803222434A604F
:10229400590706D50168046B4A6822F48022224358
:1022A4004A601A0706D50168446B4A6822F4004262
:1022B40022434A60DC0606D50168846B8A6822F4EE
:1022C400805222438A60990606D50168C46B8A68E5
:1022D40022F4005222438A605A060FD50168046C26
:1022E4004A6822F480122243B4F5801F4A6005D163
:1022F4004A68446C22F4C00222434A601B0606D595
:102304000268816C536823F400230B43536010BDAF
:102314002DE9F041DDF8188004460E4615461F46A7
:102324002268D36936EA03030CBF01230023AB42BE
:1023340001D0002025E0B8F1FF3FF2D0FEF7C0F94C
:10234400C01B4045206802D8B8F1000F1BD150E8EB
:10235400003F23F4D07340E80032002AF7D100F1A3
:10236400080353E8003F23F0010300F1080141E8AA
:102374000032002AF3D12023A367E36784F8742092
:102384000320BDE8F08103685A07C9D5C3691B055A
:10239400C6D54FF40063036250E8003F23F4D073C2
:1023A40040E80032002AF7D100F1080353E8003F67
:1023B40023F0010300F1080141E80032002AF3D1BF
:1023C4002023A367E367C4F88030D7E72DE9FF41F2
:1023D4009846836F202B04460E4617464ED100299B
:1023E4004AD0002A48D090F87430012B46D00123FB
:1023F40080F8743000252123C0F880508367FEF7ED
:102404005FF9A268A4F85070B2F5805F0346A4F89F
:10241400527003D122690AB935461646002284F85F
:102424007420B4F85220CDF8008092B23AB9402119
:102434002046FFF76DFF50B92023A36708E0002270
:10244400802120460393FFF763FF039B18B1032009
:1024540004B0BDE8F08121685EB935F8022BC2F3FF
:1024640008020A85B4F85220013A92B2A4F8522024
:10247400D7E716F8012BF4E70120E9E70220E7E7A4
:1024840030B50446002585B0C0F88050FEF718F931
:10249400226812681107034615D42268126852078D
:1024A40009D56FF07E4200924FF48001002220464D
:1024B400FFF72EFFA0B920230020A36784F874003F
:1024C400E36720660DE06FF07E42009203902A4697
:1024D4004FF400112046FFF71BFF039B0028DCD0BC
:1024E400032005B030BD10B5044640B3836F1BB95B
:1024F40080F87430FEF71CF822682423A36713685D
:1025040023F0010313602046FFF7AAFD012816D02B
:10251400636A13B12046FFF7A7FE23685A6822F4C2
:1025240090425A609A6822F02A029A601A6842F02D
:10253400010220461A60BDE81040FFF7A1BF012048
:1025440010BD0000836810B5B3F5805FA0F8582073
:10255400A0F85A204FF000024165426630D1036969
:1025640063BB40F2FF13A0F85C300023C0F8803056
:102574002223C367026802F1080353E8003F43F0D3
:102584000103083242E8003102680029F2D183686D
:10259400B3F5805F25D10469134B1449002C08BF9F
:1025A4000B464366002380F8743052E8003F43F43E
:1025B400907342E800300028F7D110BDFF23D2E722
:1025C40023B90369002BF9D07F23CCE7B3F1805FF3
:1025D40004D10369002BF7D03F23C4E7A0F85C20A3
:1025E400C3E7014BDDE700BF2D1F0008CB1F000828
:1025F400C36F202B30B41CD1C1B1BAB190F8743080
:10260400012B16D0012380F874300468002303667C
:1026140063681B0207D554E8003F43F0806344E835
:102624000035002DF7D130BCFFF78CBF012030BC42
:1026340070470220FBE7704770B50D4D0D4C641BCD
:10264400A4100026A64209D10B4D0C4C00F020F832
:10265400641BA4100026A64205D170BD55F8043BA6
:1026640098470136EEE755F8043B98470136F2E700
:10267400E8260008E8260008E8260008EC260008FA
:1026840002440346934200D1704703F8011BF9E763
:10269400F8B500BFF8BC08BC9E467047F8B500BF4B
:0826A400F8BC08BC9E4670471B
:1026AC0000000000000000000102030406070809F6
:1026BC0000000000010203040203040506070809D8
:1026CC000A0B0C0D0E0F101001020304050607086F
:0C26DC00090A0B0C0D0E0F100408020080
:0426E800B90100082C
:0426EC00950100084C
:0C26F00000127A00010000001000000041
:04000005080005EDFD
:00000001FF
